{
  "_format": "hh-sol-artifact-1",
  "contractName": "FundRaising",
  "sourceName": "contracts/FundRaising.sol",
  "abi": [
    {
      "inputs": [
        {
          "internalType": "uint256",
          "name": "",
          "type": "uint256"
        }
      ],
      "name": "campaigns",
      "outputs": [
        {
          "internalType": "address",
          "name": "owner",
          "type": "address"
        },
        {
          "internalType": "string",
          "name": "title",
          "type": "string"
        },
        {
          "internalType": "string",
          "name": "description",
          "type": "string"
        },
        {
          "internalType": "uint256",
          "name": "target",
          "type": "uint256"
        },
        {
          "internalType": "uint256",
          "name": "deadline",
          "type": "uint256"
        },
        {
          "internalType": "uint256",
          "name": "amountCollected",
          "type": "uint256"
        },
        {
          "internalType": "string",
          "name": "image",
          "type": "string"
        }
      ],
      "stateMutability": "view",
      "type": "function"
    },
    {
      "inputs": [
        {
          "internalType": "address",
          "name": "_owner",
          "type": "address"
        },
        {
          "internalType": "string",
          "name": "_title",
          "type": "string"
        },
        {
          "internalType": "string",
          "name": "_description",
          "type": "string"
        },
        {
          "internalType": "uint256",
          "name": "_target",
          "type": "uint256"
        },
        {
          "internalType": "uint256",
          "name": "_deadline",
          "type": "uint256"
        },
        {
          "internalType": "string",
          "name": "_image",
          "type": "string"
        }
      ],
      "name": "createCampaign",
      "outputs": [
        {
          "internalType": "uint256",
          "name": "",
          "type": "uint256"
        }
      ],
      "stateMutability": "nonpayable",
      "type": "function"
    },
    {
      "inputs": [
        {
          "internalType": "uint256",
          "name": "_id",
          "type": "uint256"
        }
      ],
      "name": "donateToCampaign",
      "outputs": [],
      "stateMutability": "payable",
      "type": "function"
    },
    {
      "inputs": [],
      "name": "getCampaigns",
      "outputs": [
        {
          "components": [
            {
              "internalType": "address",
              "name": "owner",
              "type": "address"
            },
            {
              "internalType": "string",
              "name": "title",
              "type": "string"
            },
            {
              "internalType": "string",
              "name": "description",
              "type": "string"
            },
            {
              "internalType": "uint256",
              "name": "target",
              "type": "uint256"
            },
            {
              "internalType": "uint256",
              "name": "deadline",
              "type": "uint256"
            },
            {
              "internalType": "uint256",
              "name": "amountCollected",
              "type": "uint256"
            },
            {
              "internalType": "string",
              "name": "image",
              "type": "string"
            },
            {
              "internalType": "address[]",
              "name": "donators",
              "type": "address[]"
            },
            {
              "internalType": "uint256[]",
              "name": "donations",
              "type": "uint256[]"
            }
          ],
          "internalType": "struct FundRaising.Campaign[]",
          "name": "",
          "type": "tuple[]"
        }
      ],
      "stateMutability": "view",
      "type": "function"
    },
    {
      "inputs": [
        {
          "internalType": "uint256",
          "name": "_id",
          "type": "uint256"
        }
      ],
      "name": "getDonators",
      "outputs": [
        {
          "internalType": "address[]",
          "name": "",
          "type": "address[]"
        },
        {
          "internalType": "uint256[]",
          "name": "",
          "type": "uint256[]"
        }
      ],
      "stateMutability": "view",
      "type": "function"
    },
    {
      "inputs": [],
      "name": "nubmerOfCampaigns",
      "outputs": [
        {
          "internalType": "uint256",
          "name": "",
          "type": "uint256"
        }
      ],
      "stateMutability": "view",
      "type": "function"
    }
  ],
  "bytecode": "0x6080604052600060015534801561001557600080fd5b50610f6d806100256000396000f3fe6080604052600436106100555760003560e01c80630fa91fa91461005a578063141961bc1461009157806342a4fda8146100c457806398f6c829146100d95780639943e3a1146100fd578063a6b036331461011d575b600080fd5b34801561006657600080fd5b5061007a610075366004610959565b61013f565b604051610088929190610972565b60405180910390f35b34801561009d57600080fd5b506100b16100ac366004610959565b61020e565b6040516100889796959493929190610a3c565b6100d76100d2366004610959565b6103eb565b005b3480156100e557600080fd5b506100ef60015481565b604051908152602001610088565b34801561010957600080fd5b506100ef610118366004610b49565b6104ad565b34801561012957600080fd5b506101326105ac565b6040516100889190610c76565b600081815260208181526040918290206007810180548451818502810185019095528085526060948594929360080192909184918301828280156101ac57602002820191906000526020600020905b81546001600160a01b0316815260019091019060200180831161018e575b50505050509150808054806020026020016040519081016040528092919081815260200182805480156101fe57602002820191906000526020600020905b8154815260200190600101908083116101ea575b5050505050905091509150915091565b600060208190529081526040902080546001820180546001600160a01b03909216929161023a90610d83565b80601f016020809104026020016040519081016040528092919081815260200182805461026690610d83565b80156102b35780601f10610288576101008083540402835291602001916102b3565b820191906000526020600020905b81548152906001019060200180831161029657829003601f168201915b5050505050908060020180546102c890610d83565b80601f01602080910402602001604051908101604052809291908181526020018280546102f490610d83565b80156103415780601f1061031657610100808354040283529160200191610341565b820191906000526020600020905b81548152906001019060200180831161032457829003601f168201915b50505050509080600301549080600401549080600501549080600601805461036890610d83565b80601f016020809104026020016040519081016040528092919081815260200182805461039490610d83565b80156103e15780601f106103b6576101008083540402835291602001916103e1565b820191906000526020600020905b8154815290600101906020018083116103c457829003601f168201915b5050505050905087565b600081815260208181526040808320600781018054600180820183559186528486200180546001600160a01b0319163317905560088201805491820181558552928420349301839055805491519293909290916001600160a01b03169084908381818185875af1925050503d8060008114610482576040519150601f19603f3d011682016040523d82523d6000602084013e610487565b606091505b5050905080156104a7578282600501546104a19190610dcd565b60058301555b50505050565b6001546000908152602081905260408120600481015442116105295760405162461bcd60e51b815260206004820152602b60248201527f54686520646561646c696e652073686f756c642062652061206461746520696e60448201526a207468652066757475726560a81b606482015260840160405180910390fd5b80546001600160a01b0319166001600160a01b038916178155600181016105508882610e35565b506002810161055f8782610e35565b5060038101859055600060058201556006810161057c8482610e35565b506001805490600061058d83610ef5565b9190505550600180546105a09190610f0e565b98975050505050505050565b6060600060015467ffffffffffffffff8111156105cb576105cb610aa6565b60405190808252806020026020018201604052801561065457816020015b61064160405180610120016040528060006001600160a01b0316815260200160608152602001606081526020016000815260200160008152602001600081526020016060815260200160608152602001606081525090565b8152602001906001900390816105e95790505b50905060005b60015481101561095357600081815260208181526040918290208251610120810190935280546001600160a01b03168352600181018054919392849290840191906106a490610d83565b80601f01602080910402602001604051908101604052809291908181526020018280546106d090610d83565b801561071d5780601f106106f25761010080835404028352916020019161071d565b820191906000526020600020905b81548152906001019060200180831161070057829003601f168201915b5050505050815260200160028201805461073690610d83565b80601f016020809104026020016040519081016040528092919081815260200182805461076290610d83565b80156107af5780601f10610784576101008083540402835291602001916107af565b820191906000526020600020905b81548152906001019060200180831161079257829003601f168201915b505050505081526020016003820154815260200160048201548152602001600582015481526020016006820180546107e690610d83565b80601f016020809104026020016040519081016040528092919081815260200182805461081290610d83565b801561085f5780601f106108345761010080835404028352916020019161085f565b820191906000526020600020905b81548152906001019060200180831161084257829003601f168201915b50505050508152602001600782018054806020026020016040519081016040528092919081815260200182805480156108c157602002820191906000526020600020905b81546001600160a01b031681526001909101906020018083116108a3575b505050505081526020016008820180548060200260200160405190810160405280929190818152602001828054801561091957602002820191906000526020600020905b815481526020019060010190808311610905575b50505050508152505083838151811061093457610934610f21565b602002602001018190525050808061094b90610ef5565b91505061065a565b50919050565b60006020828403121561096b57600080fd5b5035919050565b604080825283519082018190526000906020906060840190828701845b828110156109b45781516001600160a01b03168452928401929084019060010161098f565b5050508381038285015284518082528583019183019060005b818110156109e9578351835292840192918401916001016109cd565b5090979650505050505050565b6000815180845260005b81811015610a1c57602081850181015186830182015201610a00565b506000602082860101526020601f19601f83011685010191505092915050565b6001600160a01b038816815260e060208201819052600090610a60908301896109f6565b8281036040840152610a7281896109f6565b90508660608401528560808401528460a084015282810360c0840152610a9881856109f6565b9a9950505050505050505050565b634e487b7160e01b600052604160045260246000fd5b600082601f830112610acd57600080fd5b813567ffffffffffffffff80821115610ae857610ae8610aa6565b604051601f8301601f19908116603f01168101908282118183101715610b1057610b10610aa6565b81604052838152866020858801011115610b2957600080fd5b836020870160208301376000602085830101528094505050505092915050565b60008060008060008060c08789031215610b6257600080fd5b86356001600160a01b0381168114610b7957600080fd5b9550602087013567ffffffffffffffff80821115610b9657600080fd5b610ba28a838b01610abc565b96506040890135915080821115610bb857600080fd5b610bc48a838b01610abc565b9550606089013594506080890135935060a0890135915080821115610be857600080fd5b50610bf589828a01610abc565b9150509295509295509295565b600081518084526020808501945080840160005b83811015610c3b5781516001600160a01b031687529582019590820190600101610c16565b509495945050505050565b600081518084526020808501945080840160005b83811015610c3b57815187529582019590820190600101610c5a565b60006020808301818452808551808352604092508286019150828160051b87010184880160005b83811015610d7557888303603f19018552815180516001600160a01b0316845261012088820151818a870152610cd5828701826109f6565b9150508782015185820389870152610ced82826109f6565b606084810151908801526080808501519088015260a0808501519088015260c080850151888303828a01529193509150610d2783826109f6565b9250505060e08083015186830382880152610d428382610c02565b925050506101008083015192508582038187015250610d618183610c46565b968901969450505090860190600101610c9d565b509098975050505050505050565b600181811c90821680610d9757607f821691505b60208210810361095357634e487b7160e01b600052602260045260246000fd5b634e487b7160e01b600052601160045260246000fd5b80820180821115610de057610de0610db7565b92915050565b601f821115610e3057600081815260208120601f850160051c81016020861015610e0d5750805b601f850160051c820191505b81811015610e2c57828155600101610e19565b5050505b505050565b815167ffffffffffffffff811115610e4f57610e4f610aa6565b610e6381610e5d8454610d83565b84610de6565b602080601f831160018114610e985760008415610e805750858301515b600019600386901b1c1916600185901b178555610e2c565b600085815260208120601f198616915b82811015610ec757888601518255948401946001909101908401610ea8565b5085821015610ee55787850151600019600388901b60f8161c191681555b5050505050600190811b01905550565b600060018201610f0757610f07610db7565b5060010190565b81810381811115610de057610de0610db7565b634e487b7160e01b600052603260045260246000fdfea264697066735822122040aafbeab18a665f6fcdab17f7e49700c620dea6cb836f451ce2e96e4d3b51e664736f6c63430008110033",
  "linkReferences": {},
  "deployedLinkReferences": {}
}